{
  "_format": "hh-sol-artifact-1",
  "contractName": "NFTMarket",
  "sourceName": "contracts/NFTMarket.sol",
  "abi": [
    {
      "inputs": [],
      "stateMutability": "nonpayable",
      "type": "constructor"
    },
    {
      "anonymous": false,
      "inputs": [
        {
          "indexed": true,
          "internalType": "uint256",
          "name": "itemId",
          "type": "uint256"
        },
        {
          "indexed": true,
          "internalType": "address",
          "name": "nftContract",
          "type": "address"
        },
        {
          "indexed": true,
          "internalType": "uint256",
          "name": "tokenId",
          "type": "uint256"
        },
        {
          "indexed": false,
          "internalType": "address",
          "name": "seller",
          "type": "address"
        },
        {
          "indexed": false,
          "internalType": "address",
          "name": "owner",
          "type": "address"
        },
        {
          "indexed": false,
          "internalType": "string",
          "name": "category",
          "type": "string"
        },
        {
          "indexed": false,
          "internalType": "uint256",
          "name": "price",
          "type": "uint256"
        },
        {
          "indexed": false,
          "internalType": "uint256",
          "name": "royalties",
          "type": "uint256"
        }
      ],
      "name": "MarketItemCreated",
      "type": "event"
    },
    {
      "inputs": [
        {
          "internalType": "address",
          "name": "nftContract",
          "type": "address"
        },
        {
          "internalType": "uint256",
          "name": "tokenId",
          "type": "uint256"
        },
        {
          "internalType": "uint256",
          "name": "price",
          "type": "uint256"
        },
        {
          "internalType": "uint8",
          "name": "royalties",
          "type": "uint8"
        },
        {
          "internalType": "string",
          "name": "category",
          "type": "string"
        }
      ],
      "name": "createMarketItem",
      "outputs": [],
      "stateMutability": "payable",
      "type": "function"
    },
    {
      "inputs": [
        {
          "internalType": "address",
          "name": "nftContract",
          "type": "address"
        },
        {
          "internalType": "uint256",
          "name": "itemId",
          "type": "uint256"
        }
      ],
      "name": "createMarketSale",
      "outputs": [],
      "stateMutability": "payable",
      "type": "function"
    },
    {
      "inputs": [],
      "name": "fetchCreateNFTs",
      "outputs": [
        {
          "components": [
            {
              "internalType": "uint256",
              "name": "itemId",
              "type": "uint256"
            },
            {
              "internalType": "address",
              "name": "nftContract",
              "type": "address"
            },
            {
              "internalType": "uint256",
              "name": "tokenId",
              "type": "uint256"
            },
            {
              "internalType": "address payable",
              "name": "seller",
              "type": "address"
            },
            {
              "internalType": "address payable",
              "name": "owner",
              "type": "address"
            },
            {
              "internalType": "string",
              "name": "category",
              "type": "string"
            },
            {
              "internalType": "uint256",
              "name": "price",
              "type": "uint256"
            }
          ],
          "internalType": "struct NFTMarket.MarketItem[]",
          "name": "",
          "type": "tuple[]"
        }
      ],
      "stateMutability": "view",
      "type": "function"
    },
    {
      "inputs": [],
      "name": "fetchPurchasedNFTs",
      "outputs": [
        {
          "components": [
            {
              "internalType": "uint256",
              "name": "itemId",
              "type": "uint256"
            },
            {
              "internalType": "address",
              "name": "nftContract",
              "type": "address"
            },
            {
              "internalType": "uint256",
              "name": "tokenId",
              "type": "uint256"
            },
            {
              "internalType": "address payable",
              "name": "seller",
              "type": "address"
            },
            {
              "internalType": "address payable",
              "name": "owner",
              "type": "address"
            },
            {
              "internalType": "string",
              "name": "category",
              "type": "string"
            },
            {
              "internalType": "uint256",
              "name": "price",
              "type": "uint256"
            }
          ],
          "internalType": "struct NFTMarket.MarketItem[]",
          "name": "",
          "type": "tuple[]"
        }
      ],
      "stateMutability": "view",
      "type": "function"
    },
    {
      "inputs": [
        {
          "internalType": "string",
          "name": "category",
          "type": "string"
        }
      ],
      "name": "getItemsByCategory",
      "outputs": [
        {
          "components": [
            {
              "internalType": "uint256",
              "name": "itemId",
              "type": "uint256"
            },
            {
              "internalType": "address",
              "name": "nftContract",
              "type": "address"
            },
            {
              "internalType": "uint256",
              "name": "tokenId",
              "type": "uint256"
            },
            {
              "internalType": "address payable",
              "name": "seller",
              "type": "address"
            },
            {
              "internalType": "address payable",
              "name": "owner",
              "type": "address"
            },
            {
              "internalType": "string",
              "name": "category",
              "type": "string"
            },
            {
              "internalType": "uint256",
              "name": "price",
              "type": "uint256"
            }
          ],
          "internalType": "struct NFTMarket.MarketItem[]",
          "name": "",
          "type": "tuple[]"
        }
      ],
      "stateMutability": "view",
      "type": "function"
    },
    {
      "inputs": [],
      "name": "getListingPrice",
      "outputs": [
        {
          "internalType": "uint256",
          "name": "",
          "type": "uint256"
        }
      ],
      "stateMutability": "view",
      "type": "function"
    },
    {
      "inputs": [],
      "name": "getMarketItems",
      "outputs": [
        {
          "components": [
            {
              "internalType": "uint256",
              "name": "itemId",
              "type": "uint256"
            },
            {
              "internalType": "address",
              "name": "nftContract",
              "type": "address"
            },
            {
              "internalType": "uint256",
              "name": "tokenId",
              "type": "uint256"
            },
            {
              "internalType": "address payable",
              "name": "seller",
              "type": "address"
            },
            {
              "internalType": "address payable",
              "name": "owner",
              "type": "address"
            },
            {
              "internalType": "string",
              "name": "category",
              "type": "string"
            },
            {
              "internalType": "uint256",
              "name": "price",
              "type": "uint256"
            }
          ],
          "internalType": "struct NFTMarket.MarketItem[]",
          "name": "",
          "type": "tuple[]"
        }
      ],
      "stateMutability": "view",
      "type": "function"
    }
  ],
  "bytecode": "0x6080604052600060075534801561001557600080fd5b506001600055600680546001600160a01b031916331790556119de8061003c6000396000f3fe6080604052600436106100705760003560e01c80637f3b25041161004e5780637f3b2504146100cf57806395478fbf146100e4578063c23b139e14610104578063ee6ba2341461011757600080fd5b806312e855851461007557806329aa3a42146100985780637cbad146146100ba575b600080fd5b34801561008157600080fd5b506007546040519081526020015b60405180910390f35b3480156100a457600080fd5b506100ad61012c565b60405161008f91906117d6565b3480156100c657600080fd5b506100ad61036e565b6100e26100dd3660046115c5565b6105ee565b005b3480156100f057600080fd5b506100ad6100ff366004611644565b610ac0565b6100e261011236600461159a565b610e3f565b34801561012357600080fd5b506100ad61119d565b6060600061013960015490565b9050600061014660025490565b60015461015391906118ea565b90506000808267ffffffffffffffff81111561017f57634e487b7160e01b600052604160045260246000fd5b6040519080825280602002602001820160405280156101b857816020015b6101a561143f565b81526020019060019003908161019d5790505b50905060005b848110156103655760006008816101d6846001611893565b81526020810191909152604001600020600401546001600160a01b03161415610353576000600881610209846001611893565b815260208082019290925260409081016000908120548082526008845290829020825160e0810184528154815260018201546001600160a01b039081169582019590955260028201549381019390935260038101548416606084015260048101549093166080830152600583018054919450839160a08401919061028c90611924565b80601f01602080910402602001604051908101604052809291908181526020018280546102b890611924565b80156103055780601f106102da57610100808354040283529160200191610305565b820191906000526020600020905b8154815290600101906020018083116102e857829003601f168201915b5050505050815260200160068201548152505084868151811061033857634e487b7160e01b600052603260045260246000fd5b602090810291909101015261034e600186611893565b945050505b8061035d8161195f565b9150506101be565b50949350505050565b6060600061037b60015490565b905060008060005b838110156103de57336008600061039b846001611893565b81526020810191909152604001600020600301546001600160a01b031614156103cc576103c9600184611893565b92505b806103d68161195f565b915050610383565b5060008267ffffffffffffffff81111561040857634e487b7160e01b600052604160045260246000fd5b60405190808252806020026020018201604052801561044157816020015b61042e61143f565b8152602001906001900390816104265790505b50905060005b8481101561036557336008600061045f846001611893565b81526020810191909152604001600020600301546001600160a01b031614156105dc576000600881610492846001611893565b815260208082019290925260409081016000908120548082526008845290829020825160e0810184528154815260018201546001600160a01b039081169582019590955260028201549381019390935260038101548416606084015260048101549093166080830152600583018054919450839160a08401919061051590611924565b80601f016020809104026020016040519081016040528092919081815260200182805461054190611924565b801561058e5780601f106105635761010080835404028352916020019161058e565b820191906000526020600020905b81548152906001019060200180831161057157829003601f168201915b505050505081526020016006820154815250508486815181106105c157634e487b7160e01b600052603260045260246000fd5b60209081029190910101526105d7600186611893565b945050505b806105e68161195f565b915050610447565b600260005414156106465760405162461bcd60e51b815260206004820152601f60248201527f5265656e7472616e637947756172643a207265656e7472616e742063616c6c0060448201526064015b60405180910390fd5b60026000556064841161069b5760405162461bcd60e51b815260206004820181905260248201527f4e46544d61726b65743a204e6f206974656d20666f7220667265652068657265604482015260640161063d565b60075434146107035760405162461bcd60e51b815260206004820152602e60248201527f4e46544d61726b65743a205072696365206d7573742062652073616d6520617360448201526d206c697374696e6720707269636560901b606482015260840161063d565b6040516331a9108f60e11b8152600481018690526001600160a01b03871690636352211e9060240160206040518083038186803b15801561074357600080fd5b505afa158015610757573d6000803e3d6000fd5b505050506040513d601f19601f8201168201806040525081019061077b9190611577565b6001600160a01b0316336001600160a01b03161461080d5760405162461bcd60e51b815260206004820152604360248201527f4e46544d61726b65743a20596f75206d757374206861766520746865206f776e60448201527f657273686970206f662074686520746f6b656e20746f206372656174652073616064820152626c657360e81b608482015260a40161063d565b600080868860405160200161083e92919091825260601b6bffffffffffffffffffffffff1916602082015260340190565b60408051601f198184030181529181528151602092830120600081815260039093529120549091506001600160a01b03166108d457600081815260036020908152604080832080546001600160a01b0319163317905560049091529020805460ff871660ff199091161790556108b8600180546001019055565b60015460008281526005602052604090205560015491506108e6565b60008181526005602052604090205491505b6040518060e00160405280838152602001896001600160a01b03168152602001888152602001336001600160a01b0316815260200160006001600160a01b0316815260200185858080601f016020809104026020016040519081016040528093929190818152602001838380828437600092018290525093855250505060209182018990528481526008825260409081902083518155838301516001820180546001600160a01b03199081166001600160a01b039384161790915592850151600283015560608501516003830180548516918316919091179055608085015160048301805490941691161790915560a0830151805191926109ef92600585019290910190611497565b5060c091909101516006909101556040516323b872dd60e01b8152336004820152306024820152604481018890526001600160a01b038916906323b872dd90606401600060405180830381600087803b158015610a4b57600080fd5b505af1158015610a5f573d6000803e3d6000fd5b5050505086886001600160a01b0316837f99af45817be9118bf0f5948d18de70dce018031bfebfd252b85e90d88df837ac33600089898d8d604051610aa99695949392919061177a565b60405180910390a450506001600055505050505050565b60606000610acd60015490565b905060008060005b83811015610baa578686604051602001610af09291906116cf565b6040516020818303038152906040528051906020012060086000836001610b179190611893565b8152602001908152602001600020600501604051602001610b3891906116df565b60405160208183030381529060405280519060200120148015610b8557506000600881610b66846001611893565b81526020810191909152604001600020600401546001600160a01b0316145b15610b9857610b95600184611893565b92505b80610ba28161195f565b915050610ad5565b5060008267ffffffffffffffff811115610bd457634e487b7160e01b600052604160045260246000fd5b604051908082528060200260200182016040528015610c0d57816020015b610bfa61143f565b815260200190600190039081610bf25790505b50905060005b84811015610e34578787604051602001610c2e9291906116cf565b6040516020818303038152906040528051906020012060086000836001610c559190611893565b8152602001908152602001600020600501604051602001610c7691906116df565b60405160208183030381529060405280519060200120148015610cc357506000600881610ca4846001611893565b81526020810191909152604001600020600401546001600160a01b0316145b15610e22576000600881610cd8846001611893565b815260208082019290925260409081016000908120548082526008845290829020825160e0810184528154815260018201546001600160a01b039081169582019590955260028201549381019390935260038101548416606084015260048101549093166080830152600583018054919450839160a084019190610d5b90611924565b80601f0160208091040260200160405190810160405280929190818152602001828054610d8790611924565b8015610dd45780601f10610da957610100808354040283529160200191610dd4565b820191906000526020600020905b815481529060010190602001808311610db757829003601f168201915b50505050508152602001600682015481525050848681518110610e0757634e487b7160e01b600052603260045260246000fd5b6020908102919091010152610e1d600186611893565b945050505b80610e2c8161195f565b915050610c13565b509695505050505050565b60026000541415610e925760405162461bcd60e51b815260206004820152601f60248201527f5265656e7472616e637947756172643a207265656e7472616e742063616c6c00604482015260640161063d565b6002600081815582815260086020908152604080832060068101549401549051909291610ede91849188910191825260601b6bffffffffffffffffffffffff1916602082015260340190565b604051602081830303815290604052805190602001209050823414610f5f5760405162461bcd60e51b815260206004820152603160248201527f506c65617365206d616b652074686520707269636520746f2062652073616d65604482015270206173206c697374696e6720707269636560781b606482015260840161063d565b600081815260036020818152604080842054888552600890925290922001546001600160a01b0390811691161415610fe8576000848152600860205260409020600301546001600160a01b03166108fc610fba603c3461141d565b6040518115909202916000818181858888f19350505050158015610fe2573d6000803e3d6000fd5b506110bf565b6000848152600860209081526040808320600301548484526004909252909120546001600160a01b03909116906108fc906110349061102b9060ff166064611901565b60ff163461141d565b6040518115909202916000818181858888f1935050505015801561105c573d6000803e3d6000fd5b506000818152600360209081526040808320546004909252909120546001600160a01b03909116906108fc906110959060ff163461141d565b6040518115909202916000818181858888f193505050501580156110bd573d6000803e3d6000fd5b505b6040516323b872dd60e01b8152306004820152336024820152604481018390526001600160a01b038616906323b872dd90606401600060405180830381600087803b15801561110d57600080fd5b505af1158015611121573d6000803e3d6000fd5b505050600085815260086020526040902060040180546001600160a01b0319163317905550611154600280546001019055565b6006546007546040516001600160a01b039092169181156108fc0291906000818181858888f19350505050158015611190573d6000803e3d6000fd5b5050600160005550505050565b606060006111aa60015490565b905060008060005b8381101561120d5733600860006111ca846001611893565b81526020810191909152604001600020600401546001600160a01b031614156111fb576111f8600184611893565b92505b806112058161195f565b9150506111b2565b5060008267ffffffffffffffff81111561123757634e487b7160e01b600052604160045260246000fd5b60405190808252806020026020018201604052801561127057816020015b61125d61143f565b8152602001906001900390816112555790505b50905060005b8481101561036557336008600061128e846001611893565b81526020810191909152604001600020600401546001600160a01b0316141561140b5760006008816112c1846001611893565b815260208082019290925260409081016000908120548082526008845290829020825160e0810184528154815260018201546001600160a01b039081169582019590955260028201549381019390935260038101548416606084015260048101549093166080830152600583018054919450839160a08401919061134490611924565b80601f016020809104026020016040519081016040528092919081815260200182805461137090611924565b80156113bd5780601f10611392576101008083540402835291602001916113bd565b820191906000526020600020905b8154815290600101906020018083116113a057829003601f168201915b505050505081526020016006820154815250508486815181106113f057634e487b7160e01b600052603260045260246000fd5b6020908102919091010152611406600186611893565b945050505b806114158161195f565b915050611276565b60008061142a83856118cb565b90506114376064826118ab565b949350505050565b6040518060e001604052806000815260200160006001600160a01b031681526020016000815260200160006001600160a01b0316815260200160006001600160a01b0316815260200160608152602001600081525090565b8280546114a390611924565b90600052602060002090601f0160209004810192826114c5576000855561150b565b82601f106114de57805160ff191683800117855561150b565b8280016001018555821561150b579182015b8281111561150b5782518255916020019190600101906114f0565b5061151792915061151b565b5090565b5b80821115611517576000815560010161151c565b60008083601f840112611541578182fd5b50813567ffffffffffffffff811115611558578182fd5b60208301915083602082850101111561157057600080fd5b9250929050565b600060208284031215611588578081fd5b815161159381611990565b9392505050565b600080604083850312156115ac578081fd5b82356115b781611990565b946020939093013593505050565b60008060008060008060a087890312156115dd578182fd5b86356115e881611990565b95506020870135945060408701359350606087013560ff8116811461160b578283fd5b9250608087013567ffffffffffffffff811115611626578283fd5b61163289828a01611530565b979a9699509497509295939492505050565b60008060208385031215611656578182fd5b823567ffffffffffffffff81111561166c578283fd5b61167885828601611530565b90969095509350505050565b60008151808452815b818110156116a95760208185018101518683018201520161168d565b818111156116ba5782602083870101525b50601f01601f19169290920160200192915050565b8183823760009101908152919050565b600080835482600182811c9150808316806116fb57607f831692505b602080841082141561171b57634e487b7160e01b87526022600452602487fd5b81801561172f57600181146117405761176c565b60ff1986168952848901965061176c565b60008a815260209020885b868110156117645781548b82015290850190830161174b565b505084890196505b509498975050505050505050565b6001600160a01b0387811682528616602082015260a06040820181905281018490526000848660c08401378060c0868401015260c0601f19601f870116830101905083606083015260ff83166080830152979650505050505050565b60006020808301818452808551808352604092508286019150828160051b870101848801865b8381101561188557888303603f19018552815180518452878101516001600160a01b039081168986015287820151888601526060808301518216908601526080808301519091169085015260a08082015160e0828701819052919061186383880182611684565b60c09485015197909401969096525050948701949250908601906001016117fc565b509098975050505050505050565b600082198211156118a6576118a661197a565b500190565b6000826118c657634e487b7160e01b81526012600452602481fd5b500490565b60008160001904831182151516156118e5576118e561197a565b500290565b6000828210156118fc576118fc61197a565b500390565b600060ff821660ff84168082101561191b5761191b61197a565b90039392505050565b600181811c9082168061193857607f821691505b6020821081141561195957634e487b7160e01b600052602260045260246000fd5b50919050565b60006000198214156119735761197361197a565b5060010190565b634e487b7160e01b600052601160045260246000fd5b6001600160a01b03811681146119a557600080fd5b5056fea2646970667358221220bf29ba4ad030c71693af00073c8bc3c089400deba9e76eaf7e80dd146d21aa7864736f6c63430008040033",
  "linkReferences": {},
  "deployedLinkReferences": {}
}